{"abi":[{"type":"function","name":"retrieve","inputs":[{"name":"app","type":"bytes","internalType":"bytes"},{"name":"env","type":"bytes","internalType":"bytes"}],"outputs":[{"name":"","type":"bytes","internalType":"bytes"}],"stateMutability":"view"},{"type":"function","name":"store","inputs":[{"name":"app","type":"bytes","internalType":"bytes"},{"name":"env","type":"bytes","internalType":"bytes"},{"name":"data","type":"bytes","internalType":"bytes"}],"outputs":[],"stateMutability":"nonpayable"}],"bytecode":{"object":"0x608060405234801561001057600080fd5b50610536806100206000396000f3fe608060405234801561001057600080fd5b50600436106100365760003560e01c80638160115a1461003b578063bba2313914610050575b600080fd5b61004e610049366004610256565b610079565b005b61006361005e3660046102de565b6100d6565b6040516100709190610366565b60405180910390f35b3360009081526020819052604090819020905182919061009a908690610399565b9081526020016040518091039020836040516100b69190610399565b908152602001604051809103902090816100d09190610440565b50505050565b33600090815260208190526040908190209051606091906100f8908590610399565b9081526020016040518091039020826040516101149190610399565b9081526020016040518091039020805461012d906103b5565b80601f0160208091040260200160405190810160405280929190818152602001828054610159906103b5565b80156101a65780601f1061017b576101008083540402835291602001916101a6565b820191906000526020600020905b81548152906001019060200180831161018957829003601f168201915b5050505050905092915050565b634e487b7160e01b600052604160045260246000fd5b600082601f8301126101da57600080fd5b813567ffffffffffffffff808211156101f5576101f56101b3565b604051601f8301601f19908116603f0116810190828211818310171561021d5761021d6101b3565b8160405283815286602085880101111561023657600080fd5b836020870160208301376000602085830101528094505050505092915050565b60008060006060848603121561026b57600080fd5b833567ffffffffffffffff8082111561028357600080fd5b61028f878388016101c9565b945060208601359150808211156102a557600080fd5b6102b1878388016101c9565b935060408601359150808211156102c757600080fd5b506102d4868287016101c9565b9150509250925092565b600080604083850312156102f157600080fd5b823567ffffffffffffffff8082111561030957600080fd5b610315868387016101c9565b9350602085013591508082111561032b57600080fd5b50610338858286016101c9565b9150509250929050565b60005b8381101561035d578181015183820152602001610345565b50506000910152565b6020815260008251806020840152610385816040850160208701610342565b601f01601f19169190910160400192915050565b600082516103ab818460208701610342565b9190910192915050565b600181811c908216806103c957607f821691505b6020821081036103e957634e487b7160e01b600052602260045260246000fd5b50919050565b601f82111561043b576000816000526020600020601f850160051c810160208610156104185750805b601f850160051c820191505b8181101561043757828155600101610424565b5050505b505050565b815167ffffffffffffffff81111561045a5761045a6101b3565b61046e8161046884546103b5565b846103ef565b602080601f8311600181146104a3576000841561048b5750858301515b600019600386901b1c1916600185901b178555610437565b600085815260208120601f198616915b828110156104d2578886015182559484019460019091019084016104b3565b50858210156104f05787850151600019600388901b60f8161c191681555b5050505050600190811b0190555056fea26469706673582212201d029da40b7366a71facfe3f247e883ef3ef71abd370ca386834733e288f795164736f6c63430008170033","linkReferences":{}},"methodIdentifiers":{"retrieve(bytes,bytes)":"bba23139","store(bytes,bytes,bytes)":"8160115a"},"id":26}